:020000040800F2
:10400000C0360020DD420008E5420008E742000813
:10401000E9420008EB420008ED4200080000000001
:10402000000000000000000000000000F141000856
:10403000F14200080000000079420008C94200086F
:10404000F7420008F7420008F7420008F74200086C
:10405000F7420008F7420008F7420008F74200085C
:10406000F7420008F7420008F7420008F74200084C
:10407000F7420008F7420008F7420008F74200083C
:10408000F7420008F7420008F7420008F74200082C
:1040900021750008F7420008F7420008F7420008BF
:1040A000F7420008F7420008F7420008F74200080C
:1040B000F7420008815E0008F7420008F742000856
:1040C000F7420008F7420008F7420008F7420008EC
:1040D000F7420008B5610008F7420008F7420008FF
:1040E0000D460008F7420008F742000800F002F809
:1040F00000F03AF80AA090E8000C82448344AAF148
:104100000107DA4501D100F02FF8AFF2090EBAE845
:104110000F0013F0010F18BFFB1A43F001031847FB
:10412000604A0000804A0000103A24BF78C878C175
:10413000FAD8520724BF30C830C144BF04680C60AD
:10414000704700000023002400250026103A28BFF5
:1041500078C1FBD8520728BF30C148BF0B607047F9
:104160001FB51FBD10B510BD00F09FF91146FFF738
:10417000F7FF03F02DFC00F0BDF903B4FFF7F2FFE9
:1041800003BC00F0C1F9000080F309887047EFF329
:1041900009807047684680F3098804480078C007A2
:1041A00014BF0220032080F314887047388A000867
:1041B000DFF818C0EFF305831B0618BF6047EFF365
:1041C0001483DB0708BF604700DF7047517A00089F
:1041D000DFF818C0EFF305831B0618BF6047EFF345
:1041E0001483DB0708BF604700DF70475D7C000871
:1041F000EFF30980816911F8021C39BB90E80F10B8
:10420000E047EFF3098C194B93E80600914218D070
:1042100059B10CB44FF0010381F826302CE9F00FAE
:10422000C1F82CC004F018F80CBC1A60D2F82CC0ED
:10423000BCE8F00F92F826308CF309881BB192F895
:104240002500CCF800006FF0020E704710B5084A48
:104250001268914209D8074C54F8214090E80F1099
:10426000A047EFF3098C8CE80F0010BDE800002098
:10427000184500081845000803F086FE114B93E826
:10428000060091421BD00CB44FF0000381F8263099
:10429000EFF3098C2CE9F00FC1F82CC003F0DCFF20
:1042A0000CBC1A60D2F82CC0BCE8F00F8CF3098863
:1042B00092F826301BB192F82530CCF800306FF020
:1042C000020E7047E800002004F096F8D6E70000E0
:1042D00003F0BCFB04F090F8D0E7000009488047E9
:1042E00009480047FEE7FEE7FEE7FEE7FEE7FEE7D8
:1042F000FEE7FEE7FEE7FEE704480549054A064BF0
:1043000070470000315E0008ED400008C02E00201C
:10431000C0360020C0320020C03200200048704764
:10432000602E0020032A40F2308010F0030C00F0D1
:10433000158011F8013BBCF1020F624498BF11F8DF
:1043400001CB00F8013B38BF11F8013BA2F1040298
:1043500098BF00F801CB38BF00F8013B11F0030310
:1043600000F04A80083AC0F0088051F8043B083A4F
:1043700051F804CBA0E80810F5E7121D5CBF51F816
:10438000043B40F8043BAFF30080D20724BF11F890
:10439000013B11F801CB48BF11F8012B24BF00F8F5
:1043A000013B00F801CB48BF00F8012B70474FF0EC
:1043B00000020429C0F0128010F0030C00F05080BD
:1043C000CCF1040CBCF1020F18BF00F8012BA8BF00
:1043D00020F8022BA1EB0C0100F042B85FEAC17C8F
:1043E00024BF00F8012B00F8012B48BF00F8012B77
:1043F000704770477047704710B5203AC0F00B8087
:10440000B1E81850203AA0E81850B1E81850A0E8D8
:104410001850BFF4F5AF5FEA027C24BFB1E8185032
:10442000A0E8185044BF18C918C0BDE810405FEAA2
:10443000827C24BF51F8043B40F8043B08BF70471E
:10444000D20728BF31F8023B48BF11F8012B28BF23
:1044500020F8023B48BF00F8012B70474FF00002E4
:1044600000B5134694469646203922BFA0E80C506A
:10447000A0E80C50B1F12001BFF4F7AF090728BF45
:10448000A0E80C5048BF0CC05DF804EB890028BFC1
:1044900040F8042B08BF704748BF20F8022B11F0EA
:1044A000804F18BF00F8012B70477546FFF736FFA5
:1044B000AE4605006946534620F00700854618B011
:1044C00020B5FFF719FFBDE820404FF000064FF080
:1044D00000074FF000084FF0000B21F00701AC4639
:1044E000ACE8C009ACE8C009ACE8C009ACE8C00958
:1044F0008D46704710B50446AFF300802046BDE8F6
:104500001040FFF73ABE000001491820ABBEFEE79D
:10451000260002007047000001000000B978000882
:10452000F0B541F2210700244FF6FF7510E00B5D56
:104530001B02082683EA000C5FEA0C4C05EA4000E7
:1045400000D57840761E05EA4303002EF2DC641C99
:104550009442ECD3F0BD0000054910B501EB80207A
:104560003422044903F074F9002800D0012010BD62
:1045700000200108CC890008054910B501EB802016
:104580003822044903F064F9002800D0012010BD4E
:1045900000F400089489000803F09AF810B100F0C4
:1045A00049FBF9E7DFF804C000DFF5E78186000882
:1045B00001078A0E07490A44D2F8001C000602D5FA
:1045C00048F6CF7001E04CF68F700140C2F8001C35
:1045D00070470000005000400207930E0A4A13443F
:1045E000D3F8002C000605D501F03000504048F605
:1045F000BF7104E001F4405050404BF68F71084009
:10460000C3F8000C704700000050004010B54FF494
:10461000004000F017F800280FD0012080F3138825
:10462000BFF34F8F05480168054A01F4E06111436B
:104630000160BFF34F8F00BFFDE710BD0CED00E040
:104640000400FA05064A014600201268044B0A409D
:1046500014331B680B4202D0002A00D0012070479F
:104660000004014030B51A498379026853B30B68DE
:1046700093430B600A1D13680468A3431360027917
:104680000A441368046823431360114A083213680C
:104690000468A3431360131D1C680568AC431C60C9
:1046A0004479102C05D021440A68006802430A604E
:1046B00030BD116804682143116019680068014326
:1046C000196030BD0079084401689143016030BD34
:1046D000000401402DE9F043C94A0C46014644203C
:1046E000002517688FB044F2140355296FD014DCED
:1046F000A1F1430144F2411244F212484FF0010982
:10470000112921D2DFE801F0D63C208E422025205D
:1047100020202020203634A267002422642979D06A
:1047200008DC562977D0612976D0622975D06329B3
:104730000AD150E144F2424666296FD067296ED013
:104740006D296DD073296CD044F221000FB0BDE803
:10475000F083E0603878042874D0206890F83E0038
:10476000002806D10FB00120BDE8F04301F094B954
:10477000E06043E10FB02046BDE8F04300F0E0BF49
:104780000FB02046BDE8F04300F036BCE0600026E4
:10479000684600F043FFD8B1002049464FEA0D02B9
:1047A000A76812F81030401CBB55A368761C9955B9
:1047B000761C0528F4DB05212846A268491C905583
:1047C000A268761C9055761C0829F6DBBEE757E0F8
:1047D00044F20140BAE72668F779E060052F01D37B
:1047E0001046B3E720220DF1010006F10801FFF7A2
:1047F00099FD06F1280114220DF12100FFF792FD29
:104800008DF800906946384600F022FE0028B0D1AD
:1048100040469BE79AE06CE0E7E0EBE08FE0D1E018
:104820009AE0A3E000274FF4E0703E46E060A06805
:10483000C119304600F0B8FE28B1761C3837082E72
:10484000F5DBDBE090E044F211407FE7684600953D
:1048500000F0DCFEA168009801260870002707E040
:10486000A0688119384600F0A7FE30B134367F1CAD
:1048700000988742F4DBE660C0E044F2214065E73F
:10488000216891F83E600095E060684600F0BEFE49
:104890005EB1012E02D0022E07D102E00098401C2A
:1048A00000E02846009000F0FBFDA168009881F828
:1048B0002F00A3E0E0602068C17941B1481E0529BE
:1048C0008ED2FFF759FE0028A2D000203EE76846AE
:1048D000009500F09BFE002404E02046FFF73CFE1C
:1048E00020B1641C00988442F7DBEEE744F22240DA
:1048F0002CE7E0604348A268036802F11101C2F8A6
:10490000113042684A6002890A81A268D0F80B30EF
:1049100002F11B01C2F81B30D0F80F204A60B0F83A
:1049200013200A81A268D0F8163002F12501C2F8DE
:104930002530D0F81A204A60C08B08815EE0E26022
:1049400000F094FD0028C0D13046FFE60FB02046AD
:10495000BDE8F04301F0F2B8E2603878082803D1EE
:10496000A06801F06FF803461846EFE62068E260A1
:104970000178642902D944F20310E7E641786429FA
:1049800002D944F20410E1E68178642902D944F2A4
:104990000510DBE6C178642902D944F20610D5E699
:1049A0000179052902D944F20110CFE64179091FA6
:1049B000052902D344F20210C8E600F089FD002860
:1049C000C2D01BE0E260A06800F0F8FD00288CD1A6
:1049D00044F24140BAE6E260A068C01D00F06CFD00
:1049E0000028B0D144F20240B0E6E260A06800F0D6
:1049F000EDFD03E0E260A06800F046FD2846A5E674
:104A0000CC880008D48800080149C86070470000BD
:104A10000020024070B505464FF43026304600F0C5
:104A200059F8042811D1094C206940F00200206196
:104A30006561206940F040002061304600F04AF88E
:104A4000216941F6FD721140216170BD00200240D4
:104A500008490420CA68D20701D001207047CA68FB
:104A6000520701D502207047C968C906FBD503204B
:104A700070470000002002400248016941F08001B7
:104A80000161704700200240F0B506464FF4005720
:104A90000D46384600F01EF804280CD1064C20695B
:104AA00040F0010020613580384600F013F821699C
:104AB000BA1E11402161F0BD0020024003480249A6
:104AC000416003494160704723016745002002406F
:104AD000AB89EFCD00B50346FFF7BAFF03E000BF97
:104AE000FFF7B6FF5B1E012803D0002B00D1052085
:104AF00000BD002BF4D1FAE710B58A0721F00304BA
:104B00000649130F21440F228C689A4094438C600D
:104B10008A68984002438A6010BD0000000001408E
:104B2000F0B5CA78002502F00F03D20601D58A78C5
:104B300013430A784FF00F0E12F0FF0F4FF00102EF
:104B40001CD004680F8802FA05F63740B74211D12D
:104B50004FEA850C0EFA0CF724EA070703FA0CF467
:104B60003C43CF78282F02D0482F02D002E0466184
:104B700000E006616D1C082DE4D304600C88FF2C56
:104B80001ED944685FF0000606F1080702FA07F52F
:104B90000F882F40AF420FD14FEA860C0EFA0CF768
:104BA000BC4303FA0CF73C43CF78282F00D1456172
:104BB000CF78482F00D10561761C082EE4D34460DD
:104BC000F0BD0000F0B5144C002801DAE36900E004
:104BD0006368420D120185B2C0F301579540C0F3DE
:104BE0000346032F05D0C2020AD50322B2409343E5
:104BF00007E023F07062636823F07063636002E093
:104C0000AB4343F0706201B12A43002801DAE2614C
:104C1000F0BD6260F0BD00000000014002460020CF
:104C200092680A4200D001207047416170470161DB
:104C3000704700002DE9FF47394F384800907868E9
:104C400000250D3801903748CDE90205A0F58268AE
:104C5000694698F80400FFF73DFD08F58064039964
:104C60004FF0060984F80090022262700C31A170A6
:104C7000090AE17098F804104FF0030A2171E0B3BB
:104C800065216171A071000AE0712648083800F0C2
:104C9000BFFAA573E57303987A68103081B208EB08
:104CA000020010F8082D6254491C89B242786254FF
:104CB000491C89B282786254491C89B2C078605418
:104CC000491C88B2174904F80090401C80B2103982
:104CD00004F800A0401C85B22A463046FFF720FCAD
:104CE000605506466D1CA8B2310A2154401C81B2A1
:104CF0000D4A386890420B4800E006E0A0F1100031
:104D000008D101F0CFFABDE8FF8773206071A5716B
:104D1000E571BAE702F0B8FCF5E7000021010020D8
:104D2000500000202C0500203409002002494CF6D8
:104D3000CC400860704700000030004000F014B81C
:104D400070B504460D4645F2555000F021F8204656
:104D500000F012F8284600F015F800F005F8BDE85C
:104D60007040FFF7E3BF000002494AF6AA2008603E
:104D70007047000000300040014948607047000063
:104D8000003000400149886070470000003000405A
:104D90000149086070470000003000401CB523A1A5
:104DA000DFF890C0D1E90001CDE9000100DF224E1B
:104DB000044640F2DC586F46DFF878C000DF011B84
:104DC0000546414520D902F037FC00243019C0784F
:104DD0000028385D02D000F0C9F801E000F0B4F816
:104DE000641C052CF2DB307800284FF0020016D04E
:104DF00000F0AAF810483830007820284FF0000062
:104E000010D000F0A1F82C46092000F0C1F8FFF7FF
:104E100095FF4FF4FA70DFF824C000DFCCE700F014
:104E2000A5F8E7E700F0A2F8EDE7000007060504A3
:104E3000030000003984000804000020617B0008A2
:104E40002DE9F0410F460446811C058816460020D6
:104E5000FFF766FB854202D10120BDE8F0813246B2
:104E600039462046BDE8F04102F0F2BCFF210020A7
:104E7000DFF844C000DF03F0F3FC012003F068FC1E
:104E800001210020DFF830C000DF00231A46194658
:104E90000A48DFF82CC000DF00231A460121094828
:104EA000DFF81CC000DF002000F0F6FD0020DFF876
:104EB00018C000DFFEE70000B18600089D4D000825
:104EC00085840008994500081585000838B5142226
:104ED00017491848FFF7B4FF002827D0164D0024C3
:104EE000134905EB842038221431FFF7A9FF00286D
:104EF0001CD0641C082CF3DB0D49102280310F48B4
:104F0000FFF79EFF002811D00949142290310C4868
:104F1000FFF796FF002809D0002000900422694680
:104F20000848FFF78DFF002800D0012038BD0000A1
:104F30008089000800F0000800F40008001401084F
:104F400000180108001C0108074A082802EBC001EC
:104F500052F83020898804D0092802D01046FFF783
:104F600066BE1046FFF761BE00890008074A0828A0
:104F700002EBC00152F83020898804D0092802D001
:104F80001046FFF752BE1046FFF751BE00890008D9
:104F9000044A52F83010CB6802EBC00080884340CE
:104FA000CB6070470089000838B50121392000F036
:104FB000A7FA01210E48FFF705FE10208DF8030027
:104FC00003200C4D8DF80200002400BF05EBC40047
:104FD00069468088ADF8000055F83400FFF7A0FD61
:104FE000E0B2FFF7C3FF641C0A2CEFDB38BD000002
:104FF000000230000089000810B501682E4B86B011
:1050000091F83D2019680024497800944424C46034
:10501000186803696BB19AB1007804280DD0274B4A
:1050200041F24420012A0FD0022A17D0032A09D1C5
:105030001FE044F2110006B010BD44F21400FAE77C
:1050400000F0DEFE0020F6E70F29F4D018680844CF
:10505000C07868B341F230200844ECE70F29EAD069
:1050600018680844C07808B1012021E001F591508A
:10507000E1E718680078022804D00F2905D041F232
:105080004320D8E741F24520D5E7684600F0BEFA54
:1050900001A800F093FA38B19DF809000099884200
:1050A00005DC44F22130C6E744F24140C3E7022068
:1050B00000F09CFCBFE70000CC880008D088000806
:1050C00008B50778012144680020DFF80CC100DF33
:1050D0006FF000451FB1012F0ED0022F1BD1E678D3
:1050E0004FF47A704643A07864214843DFF8ECC05F
:1050F00000DF2A4601210BE066784FF47A704643C0
:10510000207864214843DFF8D4C000DF2A4600211C
:10511000012000F06FFD324C04204FF00108207098
:105120004002C4F8088000F05FFB8246DFF8B4C09C
:1051300000DFDFF8B4B08146294801211038DFF8DC
:10514000ACC000DFA8B14FF4006000F04DFB054695
:105150009FB1BAF1000F00D005B3AA46DFF884C0B2
:1051600000DFA0EB0900B04218D8DFF884C000DFF0
:10517000E2E7012000F09EFD1BE0BAF1000F03D032
:1051800015B9012000F026FD61783BF81100009070
:1051900000F02AFB054600980542DFD0012000F010
:1051A00089FD280505D52020207046F201006060A9
:1051B00005E008202070012F01D1C4F80C800020E8
:1051C000A0600748DFF82CC0183800DF0020DFF8A7
:1051D00028C000DFFEE70000B1860008617B000800
:1051E0003C00002039840008F68800081982000875
:1051F00081860008E181000815850008024A1140F7
:10520000014302480160704780FFFF1F08ED00E086
:1052100025490A68127802700A6852780F2A01D06C
:10522000D21C00E001224270204A13685B7803B16F
:10523000082383700968C96801B104211944817089
:1052400013681B78022B03D0012B06D0891C8170B8
:105250001168C97919B1012102E0491CF7E702215F
:10526000C17011688A790AB1012200E0022292001D
:1052700002714B790BB1012300E002231A44920022
:1052800002710B790BB1012300E002231A4492064C
:10529000120E0271C97809B1012100E00221114406
:1052A0000171002141717047CC880008D088000846
:1052B000444E044604203070022000F095FA18B9DC
:1052C00000F024FB00284CD1DFF8FCC000DF0546CD
:1052D00000210F2000F080F8002842D1DFF8E8C05C
:1052E00000DF401BA0814FF4FA773846DFF8DCC0BE
:1052F00000DF0125DFF8D0C000DF80462946681EA8
:1053000000F06AF870B9DFF8C0C000DF04EB4501B7
:10531000A0EB080088813846DFF8B0C000DF6D1CC4
:10532000042DE7DD0425B846DFF89CC000DF074602
:10533000691E284600F050F860B9DFF88CC000DF25
:10534000C01B24F815004046DFF880C000DF6D1E4A
:10535000012DE9DADFF870C000DF054600F0D6FA6B
:1053600060B12021317070601648DFF864C00838E1
:1053700000DF0020DFF85CC000DFFEE7DFF848C098
:1053800000DF401B2080DFF840C000DF0546012120
:105390004FF4C862084600F02DFC03E00A20DFF855
:1053A0002CC000DF012000F0FDFB0028F6D1DFF863
:1053B00018C000DF401B2083E083082030700F20DE
:1053C0007070D1E73C00002039840008617B000840
:1053D000E18100081585000870B50C4606460F29C6
:1053E0000CD0042000F000FA05464BF680320F2E58
:1053F0000DD0B4420FDDA41B01210EE0022000F00D
:10540000F3F900BB00F082FA00281DD11BE0012156
:105410000020641C02E0341B0021002000F0EAFBA5
:105420000CE0042000F0E0F908B905B1641E05465F
:10543000002000F0B7FB40B1FFF780FC002CF0DC4F
:10544000002000F037FC002070BD4FF4A44070BD78
:10545000054A10B502EB8020382202F0F9F9002845
:1054600000D0012010BD000000F4000810B5142287
:105470000349044802F0ECF9002800D0012010BDD7
:105480008089000800F0000810B501461E2203487C
:1054900002F0DEF9002800D0012010BD001801083C
:1054A00001B504226946034802F0D2F9002800D071
:1054B000012008BD001C010810B501461022034858
:1054C00002F0C6F9002800D0012010BD0014010828
:1054D00010B501461422034802F0BAF9002800D0A2
:1054E000012010BD00F00008044A0029D16901D054
:1054F000014300E08143D161704700000010024089
:10550000044A0029916901D0014300E0814391617F
:10551000704700000010024030B51F494A6812F081
:105520000C031E4A03D0042B01D0082B21D00260AB
:105530004A680F231A4C03EA1212A35C0268DA408D
:1055400042604B68072505EA1323E35C22FA03F364
:1055500083604B6805EAD323E35CDA40C2604968A4
:10556000032303EA9131231F595CB2FBF1F101617E
:1055700030BD4A684B6802F470124FF0020413F415
:10558000803F04EB924202D04B689B0301D5054B50
:1055900000E0024B5A43CAE70010024000127A00B2
:1055A0007900002000093D00024A02EB80203822E9
:1055B00000F014B800F400080120704701461422DE
:1055C000014800F00BB8000000F0000801461E2260
:1055D000014800F003B80000001801082DE9F0416F
:1055E000841C0D460788164621460020FEF798FFCA
:1055F000874207D00020BDE8F08100BF14F8010BFE
:1056000005F8010B761EF9D20120F4E701460422C9
:105610000148FFF7E3BF0000001C0108014610220B
:105620000148FFF7DBBF0000001401083EB501216F
:105630000420FFF765FF01210846FFF761FF4FF4E3
:105640000044ADF8084004208DF80B0002A90C4876
:10565000FFF766FA0F210020FFF74EFA00208DF8C1
:1056600004000C208DF8050001208DF80600009440
:105670006846FEF7F7FF0349E011C1F800013EBD9F
:105680000008014004E000E0294C042020704002A2
:1056900000F0AAF8E8B1F82000F0A6F805460121CC
:1056A0004FF4FA42084600F0A5FA224E40F6F807F9
:1056B000384600F099F80246000515D45FF0000066
:1056C00036F8101029420CD111420AD0012000F006
:1056D000F1FA022000F088F880B100F0F5F868B126
:1056E0000FE0401C0528EBDB012000F05BFA10B155
:1056F000FFF724FBDCE746F2010002E000F006F9C8
:1057000060B12021217060600948DFF82CC0283882
:1057100000DF0020DFF824C000DFFEE70820207053
:105720000F20607020690028EED101202061EBE796
:105730003C000020F6880008E1810008158500087B
:105740007FB5184D4421C16029680A6932B10978D2
:10575000082906D044F2140004B070BD44F21100D0
:10576000FAE70068C479052C04D30F2C09D044F261
:105770004110F1E76846FFF751FF50B13DF81400C2
:1057800050B128684078A04209D0204600F0ACF91A
:10579000E2E744F20140DFE744F24210DCE7002098
:1057A000DAE70000CC88000805680C4C0420294684
:1057B00020706078FFF710FE18B120212170606022
:1057C00002E00820207065700448DFF814C020381B
:1057D00000DF0020DFF80CC000DFFEE73C00002007
:1057E000E18100081585000870B505460024000514
:1057F00006D580211048FFF711FA44EAC02084B290
:105800000E4E680506D5B1143046FFF707FA44EA94
:10581000802084B2A80507D54FF400513046FFF729
:10582000FDF944EA402084B2E80503D000F06CFCA6
:1058300028400443204670BD00100140000C014088
:1058400038B501211820FFF75BFE8020ADF800007D
:1058500048208DF803000320194C8DF8020069469A
:105860002046FFF75DF9A014164DADF8000069461B
:105870002846FFF755F96014ADF800006946284640
:10588000FFF74EF94020ADF8000069462046FFF7CB
:1058900047F94FF48040ADF8000010248DF8034024
:1058A00069462846FFF73CF9E002ADF800008DF8A4
:1058B000034069462846FFF733F900F06BFC38BD1A
:1058C00000100140000C014070B5002501244BF68A
:1058D00080322146284600F08DF90420FFF784FF2E
:1058E00008B1012402E00CB100246D1C002000F07E
:1058F00059F940B1FFF722FA052DEEDB002000F048
:10590000D9F9002070BD4FF4A44070BD10B500213E
:105910004BF68032084600F06DF90220FFF764FF75
:1059200000284FF0000003D000F0C4F9002010BDA3
:1059300000F038F910B1FFF701FAEEE74FF4A44098
:1059400010BD00000CB500212648019100910268AD
:1059500042F4803202604FF4A063026802F4003225
:105960000092019A521C0192009A12B9019A9A422D
:10597000F3D10268920333D5012100911A490A68D4
:1059800042F010020A600A6822F003020A600A6804
:1059900042F002020A60416841604168416041682A
:1059A00041F480614160416821F47C1141604168AB
:1059B00041F4E8114160016841F0807101600168C3
:1059C0008901FCD5416821F003014160416841F043
:1059D000020141604168C1F381010229FAD10CBD85
:1059E00000910CBD001002400020024010B504469A
:1059F0000F48FFF7E3FDB8B10E480D49DFF838C096
:105A0000C0E900410021183000DF0A4800212030A1
:105A1000DFF824C000DF0022064B02210748DFF830
:105A200020C000DF002010BD44F2414010BD000046
:105A3000080100200C000020A1810008C1500008CE
:105A40008584000810B504462421FEF7B0FC00212F
:105A50000C48DFF834C000DF0022234602210B4847
:105A6000DFF82CC000DF4FF6FF710648DFF824C0D6
:105A700000DF044808300178202901D0002010BD43
:105A8000406810BD34000020A1810008B152000818
:105A9000858400081982000810B5044600210D48CD
:105AA000DFF834C000DF00231A4602210B48DFF87C
:105AB00030C000DF54B14FF6FF710648DFF824C054
:105AC00000DF044828300178202901D0002010BDD3
:105AD000406810BD14000020A1810008895600080C
:105AE00085840008198200080F49DFF840C008606B
:105AF0000D4800211C3000DF00220B4B02210C4816
:105B0000DFF830C000DF08484FF6FF711C30DFF8C7
:105B100028C000DF04483C300178202901D0002053
:105B2000704740687047000000000020A181000815
:105B3000A9570008858400081982000870B501681B
:105B400024230A7D1531C360012A23D10878012856
:105B500009D00124487840B14FF6FF75012808D0DC
:105B6000022817D10EE00024F4E7204600F0A2F846
:105B700010E0204600F016F808B1002107E02A46A0
:105B800000210BE0204600F00DF828B1012120464D
:105B900000F010F8002070BD2A460121204600F0D8
:105BA00029F8F7E7024900EB400051F82000704760
:105BB0001C090020064A00EB400002EBC00200294D
:105BC00090689289114601D0FFF731B8FFF72DB8E0
:105BD0005089000810B5064C40F2F311204600F041
:105BE0003DFA2046BDE81040FA2100F03BBA000023
:105BF000000400402DE9F0472A4D00EB4007914694
:105C000055F82720284E8ABBDFF8A08000EB400221
:105C100008EBC2040029A189A06834D0FFF707F877
:105C2000A18858F83700FFF702F8C820DFF880C0D5
:105C300000DF05EB87000021C0E90191C721304654
:105C400000F00CFAE08A4FF06401022830461DD0C3
:105C500000F008FA0421304600F04CF9012204213A
:105C6000304600F063F9012045F827003088C0076E
:105C700015D10021304600F0F7F93046BDE8F04775
:105C8000012100F03DB9FEF7D0FFC9E700F0E8F9C7
:105C90000221304600F02EF901220221E0E7BDE8A2
:105CA000F08700001C090020000400405089000813
:105CB000617B000870B500EB40040F4800EBC405A1
:105CC00050F83400A988FEF7B0FFE98A0B4D002296
:105CD000284600F02BF90A49002041F82400C86842
:105CE000002808D10868002805D12846BDE8704082
:105CF000002100F005B970BD508900080004004083
:105D00001C0900202DE9F04387B001211420FFF782
:105D1000F7FB01210220FFF7E7FB0320364E8DF849
:105D2000020000254FF010084FF0180905EB450759
:105D300006EBC7048DF80380A088ADF8000056F884
:105D400037006946FEF7ECFEA089ADF80000694611
:105D5000A068FEF7E5FE8DF80390A08AADF800007C
:105D600069462069FEF7DCFEA18856F83700FEF789
:105D70005CFF6D1C022DD9DB4FF6FF70ADF81400EF
:105D80004720ADF8100000241C4DADF81640ADF8CA
:105D9000124004A9284600F069F97020ADF800000F
:105DA000ADF8064001210420ADF80210ADF8040062
:105DB000ADF80A40ADF80C40ADF80840ADF80E4023
:105DC0006946284600F0BAF86946284600F0FCF813
:105DD0000821284600F0F2F80821284600F034F99E
:105DE0000121284600F07CF84FF0E021E804C1F8DA
:105DF000000107B0BDE8F0835089000800040040AE
:105E00000848806800280BD00648DFF81CC010380E
:105E100000DF04484FF6FF711838DFF810C000DFCC
:105E2000704700003C000020E18100081982000852
:105E30000F4810B5016841F00101016041680D4A49
:105E40001140416001680C4A11400160016821F471
:105E500080210160416821F4FE0141604FF41F017F
:105E60008160FFF76FFD05494FF00060086010BDCD
:105E7000001002400000FFF8FFFFF6FE08ED00E012
:105E80002DE9F041134D144F002400BF04EB4406EC
:105E900055F82600C8B1114800EBC600C08A8046FC
:105EA0000146384600F036F801280ED14146384602
:105EB00000F023F805EB86018868401C886049687B
:105EC000884202D3E0B2FFF7F5FE641C022CDDDB52
:105ED000BDE8F0811C090020000400405089000842
:105EE0000029018802D041F0800101E021F0800109
:105EF00001807047C94301827047C94301827047DE
:105F00000029018802D041F0010101E021F00101E6
:105F10000180704702460020138A92890B4202EAF0
:105F2000010202D0002A00D001207047002A828995
:105F300001D00A4300E08A438281704730B5028C69
:105F400022F001020284028C8388048B22F0020278
:105F500024F073050C882C430D8915434A882A4385
:105F6000114DA8420BD0114DA84208D0104DA842A7
:105F700005D0104DA84202D00F4DA8420DD122F0FD
:105F800008054A8923F440732A4322F004058A88CD
:105F90002A438D891D43CB892B4383800483C98881
:105FA0008186028430BD0000002C01400034014095
:105FB000004001400044014000480140028B22F0B3
:105FC00008020A430283704770B5028C22F0100267
:105FD0000284028C8488038B0D8823F4E6464FF6F6
:105FE000FF7303EA052535430E8922F0200203EAF8
:105FF000061616434A8803EA02123243104EB04294
:1060000002D0104EB04215D122F080064A8924F405
:10601000406403EA0212324322F040068A8803EA0F
:10602000021232438E8903EA86062643CC8903EAAC
:106030008404344384800583C9880187028470BD49
:10604000002C014000340140028B4FF6FF7322F414
:10605000006203EA01211143018370478185704783
:1060600081867047018770478184704730B5028808
:106070001B4B1C4C98420DD0A0420BD0B0F1804F6E
:1060800008D0194DA84205D0184DA84202D0184D8D
:10609000A84203D122F070054A882A43154DA84230
:1060A00006D0154DA84203D022F44075CA882A4371
:1060B00002808A8882850A88028598420AD0A04296
:1060C00008D00E4A904205D00D4A904202D00D4AA7
:1060D000904201D1097A01860121818230BD000000
:1060E000002C014000340140000400400008004042
:1060F000000C00400010004000140040004001402F
:1061000000440140004801402DE9F0471F4E4FF484
:10611000804421463046FEF788FD0122521C642A45
:10612000FCDB21463046FEF782FDDFF8649040211B
:106130004846FEF773FD044600254FF400473946F4
:106140003046FEF772FD0220401C6428FCDB394615
:106150003046FEF76CFD0220401C6428FCDB4FF645
:10616000FF7000EA440840214846FEF757FD40EA28
:1061700008040220401C6428FCDB6D1C082DDEDBBB
:1061800000F008F82046BDE8F0870000000C014050
:106190000010014010B5064C4FF480412046FEF738
:1061A00046FD2046BDE810404FF40041FEF73FBDDC
:1061B000000C014070B5144D40F22551284600F006
:1061C000A1F801280FD008212C46284600F093F8AA
:1061D000012818D10821204600F080F82046BDE8AB
:1061E000704000F01DB9094C284600F019F9B4F8C8
:1061F00000144A1CA4F800246054B4F80004C0F34E
:106200000900A4F8000470BD0038014034090020E2
:106210002DE9FF410D460446012144F20400FFF739
:106220006FF91D4E694670154700ADF80000182043
:106230008DF8030003208DF802003046FEF770FC55
:10624000ADF8007004208DF8030069463046FEF773
:1062500067FC0020ADF80400ADF80600ADF80C00B6
:106260000E4EADF808500C20ADF80A0000946946B7
:10627000304600F07FF8012240F22551304600F010
:1062800060F80121304600F02CF805492020C1F8C3
:106290000001BDE8FF810000000801400038014016
:1062A00004E000E02DE9F0410E46074600240A4DC7
:1062B0000EE04021284600F011F8395D284600F034
:1062C000B3F84021284600F016F80128F9D1641CE3
:1062D000B442EEDBBDE8F08100380140C9430180E3
:1062E00070470029818902D041F4005101E021F476
:1062F0000051818170470246002012880A4200D076
:106300000120704730B501F01F0201240025C1F3C0
:10631000421304FA02F2012B0FD0022B0FD0838A12
:106320004FEA11210088134204FA01F400EA040044
:1063300001D000B10125284630BD8389F0E7038AEA
:10634000EEE710B5C1F3421301F01F040121A14093
:10635000012B07D0022B07D01430002A026805D089
:106360000A4304E00C30F8E71030F6E78A43026095
:1063700010BD000030B50446008A85B00D464CF6CD
:10638000FF710840E98801432182A1894EF6F3108C
:106390000140A8882A8910436A890A431043A081D2
:1063A000A08A4FF6FF410840A9890143A1826846AF
:1063B000FFF7B2F81948844201D1039800E002982F
:1063C000A189090400EBC00101EB0010296801D587
:1063D000490000E08900B0FBF1F06422B0FBF2F16B
:1063E00009010B096FF018056B4300EB8300A389CB
:1063F0001D044FF0320306D503EBC000B0FBF2F0F2
:1064000000F0070005E003EB0010B0FBF2F000F035
:106410000F000843208105B030BD00000038014066
:106420008088C0F308007047C1F30801818070477D
:1064300000B50346FEF7BCF843F2300118465DF89C
:1064400004EBFEF7C9B80000F0B58378204A03F0EA
:106450000F041E0657688188158803F00F0307EBA9
:10646000031304D5491C21F001011D6011E09D605A
:106470003E2909D91F3121F01F014FF0FF3505EBEF
:10648000411545F4004503E0491C21F001014D028E
:10649000DD6013880B441380C07810F0030006D031
:1064A000012807D0022808D003280AD107E04FF4BA
:1064B000007106E04FF4806103E0002101E04FF439
:1064C000C061044A214302EB8400C0F8001CF0BD07
:1064D0005800002000500040002802D10149A020AF
:1064E0000880704758000020064940B1012008602C
:1064F000002008600A1D10604FF4E05000E0032007
:1065000008607047405C004010B50B4C0B48A288F7
:1065100001788A4200D9CAB21AB90749002018394D
:1065200008718020216800F0C9FF216801442160C2
:10653000A188081AA08010BDA4000020548A000879
:1065400010B5064C0020216800F042FC216801448F
:106550002160A188081AA08010BD0000A4000020BE
:1065600070470021FEF738B843F22001FEF734B837
:106570002DE9F047DFF844820646A8F108058007B8
:106580004FF0000AA5F1180424D500F06FFF98F829
:1065900000004746C009FFF7E3FFF888A880397874
:1065A000C1F3411010B1012877D17DE098F80120A6
:1065B000834FDFF810920C2A6FD2DFE802F0060C4E
:1065C000951C952B3B953F45526100F001FD33E052
:1065D000FFF79AFF96E0002000F038FD00285CD01D
:1065E00000F04AFF386820B16169002921D00820F5
:1065F00050E0484653E0012000F028FD002873D009
:1066000000F03AFF38680028F3D06169002979D09A
:1066100004203FE011F01F0F66D198F8020001211D
:1066200040F08000207000F07F0000F011FF00F0CB
:1066300023FF67E000F0F2FB78B3C9E711F01F0F0A
:1066400052D15E481F3819E000F056FD28B300F023
:1066500013FF386818B1616929B301201AE05A485C
:106660001DE001F01F0101293ED16178A9B198F820
:106670000400A178884237D2544908442860A7E72B
:1066800000F002FE48B100F0F7FE386830B16169F1
:1066900049B1022002F0F8F834E025E04C480168E6
:1066A00009B1084680472DE011F01F0004D00128F1
:1066B00005D0022818D111E000F0B6F813E000F080
:1066C000B9F8F8B900F00CF9E0B900F0A9F8C8B9C8
:1066D00000F0A8F8B0B900F0ABF804E000F09EF8C4
:1066E00080B900F0A3F868B998F80010090604D43E
:1066F000B8F8060008B1002000E0802000F0B2FEEB
:10670000A5F804A0700735D598F8000047460006A4
:106710002ED4A88858B3FFF713FFA88838BB387861
:10672000C0F34111F1B101291CD110F01F0004D0B8
:10673000012805D0022815D10EE000F051F810E034
:1067400000F054F898B900F047F880B900F046F826
:1067500068B900F049F804E000F03CF838B900F0FE
:1067600041F820B9802000F07DFEA5F804A001E0EA
:1067700000F088FE300713D598F80000000606D513
:10678000A888217908430BD0FFF7BEFE08E02078E7
:10679000010605D500F07F002070002100F058FEB2
:1067A000700602D50020FFF743FE300604D5BDE891
:1067B000F0478020FFF73CBEBDE8F087AC0000202A
:1067C000708A00086C8A0008648A00086C00002047
:1067D000688A00080020704700207047002070473A
:1067E00000207047002070470020704710B509480E
:1067F000094A01791278914209D14078092806D1D5
:1068000000F038FA18B100F037FE012010BD00206A
:1068100010BD0000AC000020558A00080020704721
:10682000002070470020704700207047002070470C
:10683000002070472DE9F041224C23492079097846
:1068400088423DD16078214D214E224F0C2837D20D
:10685000DFE800F03606212D36363636361624327D
:1068600000F01EF960B3E078012802D0032803D0BD
:1068700003E01948286000E02E60FFF745FE13E0B2
:10688000E078022802D0032803D00DE013482860E6
:106890000AE02E6008E000F0EBF80AE000F0C2F930
:1068A0000CE000BF00F0E8FD0120BDE8F08100F041
:1068B000EDF828B12F60E0E700F0D2F90028F1D11F
:1068C0000020F2E7AC000020558A0008A400002058
:1068D00074000020F42C0020352D0020762D00209F
:1068E00000207047084800214170C160016141618A
:1068F0008161C16141808180016241628162C180A8
:10690000C162018170470000B80000202DE9F05FEE
:10691000DFF84081DFF840A1DFF840B10127504C9B
:1069200008F101090025A561606910B1A761BDE802
:10693000F09F6761A088618888421AD3206AC0B935
:10694000E561A580012398F8001008F101021846BE
:1069500001F002FF0004000C60800CD04149C4F833
:106960001C800978012902D8C4F81C903BE0401C27
:1069700060806088B8BBE068A8BB216999B33948DA
:106980004246007801280FD81570A5800223521CBA
:106990000021012001F0E0FE0004000C608001D025
:1069A000C4F81C9025611EE01678202E00D3002626
:1069B00007FA06F0084240D0701CC1B21170A580E1
:1069C000022308F10102012001F0C6FE0104090CB6
:1069D000618003D0491CC4F81C806180216907FADA
:1069E00006F0814321616088216A01432AD0A18891
:1069F000401A9BF8001086B23AF81100B04200D25B
:106A00000646676218483246E169007840F0800027
:106A100000F054FDE06915493044E061A08830443D
:106A200080B2A080098888420AD29BF800103AF808
:106A30001100B04204D1276205E0761CF6B2B4E73B
:106A4000256200E065626561A06900287FF46BAF94
:106A50006DE70000342D00205C8A00088F000020C4
:106A6000B8000020608A0008568A0008628A000880
:106A7000034804498078085C034908700120704786
:106A8000AC00002072000020F42C002010B501F0B2
:106A900061FE02490870012010BD0000F42C0020A6
:106AA0000B4910B5C8780022012804D0022804D070
:106AB000032806D103E0074A02E0002010BD064A81
:106AC000521C8978002301F047FE012010BD000010
:106AD000AC000020342D0020730000202DE9F05F71
:106AE0004648007800287DD0454800273D4601787B
:106AF0004A1C0270434A1478042204EB440A02FA46
:106B00000AF2521E914201DB057001273E49002323
:106B10000A88FF2A01D2521C0A803C4A8E46098804
:106B200032F81490894500D1012383460021006981
:106B30009BF8006043E000BF4FF0000C6FB1344A97
:106B4000545CFF2C01D2641C5454324C645C24B15C
:106B5000525CA24201D34FF0010C2E4A4FF00208C2
:106B600008FA0AF8525C02FA08F44C4502DA0AB153
:106B7000012400E0002433B12CB14FF0010808FAE1
:106B800001F848EA0000DFF8908018F801804245DB
:106B90000AD01F4A525C424503D301228A40104367
:106BA00000261C4A02F80180BCF1000F05D014B980
:106BB00001228A401043164A5554491CC9B2174A4B
:106BC00012789142B8D3CBF8100059468BF8006088
:106BD0000BB1AEF8005008B1CA6852B1104A137830
:106BE000012200E003E09A409043CBF81000BDE89A
:106BF000F09FBDE8F05F0020FFF788BE8D00002009
:106C0000B80000208F0000206E000020588A000885
:106C1000700000207100002072000020608A0008CF
:106C2000342D002010B50A4809498078C97810B180
:106C3000084A815409E00020074B084A02E0195431
:106C4000401CC0B21478A042F9D3012010BD00004E
:106C5000AC0000207100002072000020608A000853
:106C6000034810B5807801F0D4FD012010BD00006C
:106C7000AC0000200C4908B5C8780022012804D0D7
:106C8000022804D0032806D103E0002008BD074AEB
:106C900000E0074A521C00230093CB88897801F05A
:106CA000B9FD012008BD0000AC000020752D0020BA
:106CB0007300002010B50121C805FEF715FC01DFA7
:106CC00010BD00004FF6FF74002220462146DFF879
:106CD00014C000DFDFF810C000DFC007F4D0FFF7FA
:106CE00001FEF1E7217C0008697B00084FF6FF7484
:106CF000002220462146DFF814C000DFDFF810C074
:106D000000DF4006F4D5FFF7E9FEF1E7217C00083B
:106D1000697B00084FF6FF742046214601F0BCFD58
:106D200001F0ACFDFFF724FCF6E74FF6FF742046B8
:106D3000214601F0B1FD01F0A1FD0007F7D50020CB
:106D4000FFF7E4FDF3E700002DE9F041194C1A4F7D
:106D500000252560386838B100231A4603211748FA
:106D6000DFF85CC000DF2060DFF84CE0154E002447
:106D70000EF1080E46F824505EF8240038B10023C6
:106D80001A460221DFF838C000DF46F82400641CF0
:106D90000F2CEFD90C4C25607868002807D0002311
:106DA0001A4602210948DFF818C000DF2060BDE85C
:106DB000F0810000B4000020748A0008ED6C000827
:106DC00085840008B82D0020A0000020C56C0008B4
:106DD00070B50F4B00F00F020E4C5B6803EB021214
:106DE0009368928904EB4303C2F309040022651CF3
:106DF00005E000BF33F8046B21F8026B521CB2EBC4
:106E0000550FF7D34FF44051FDF7E6FB204670BD18
:106E10005800002000600040704700007CB54048EA
:106E2000A0F120050178A0F1080411F01F0102D0A3
:106E3000012973D15CE0C378394839492038394A8F
:106E4000C0788978082B69D2DFE803F06804123F24
:106E50006868082C34482060122047E01178002927
:106E60005CD018B1314820600A203FE03048FAE792
:106E700012780AB9012851D018B12E48009000208C
:106E800008E02D48FAE7009A137813B153881A44A2
:106E90000092401C8142F6D100980178E9B320604D
:106EA000408823E01278C2B318B124480090002033
:106EB00008E02348FAE7009A137813B153881A447C
:106EC0000092401C8142F6D1E6E71E480090002067
:106ED00005E0009B1A780AB11A440092401C8142D6
:106EE000F7D100980178C1B120600078019005E0E9
:106EF00001A9684600F02AF800280DD0A188019861
:106F0000814208D9104980B2A0800978491E084200
:106F100001D10120287101207CBDFFE70020FBE7A3
:106F2000AC000020518A0008E28A0008F58A0008B7
:106F3000F48A0008198B0008F68A00081B8B0008E9
:106F40001A8B00081C8B0008548A000830B5164ABA
:106F5000164C174BD5781279212D02D0222D20D135
:106F600015E02478A2421CD1124A1478124A1278F1
:106F70000CB9012A15D042B1104A02601046104ADD
:106F8000128810441860092008E00E4AF5E72078BE
:106F9000824206D10C4818600C4800880860012025
:106FA00030BD002030BD0000AC000020558A000834
:106FB000A4000020518A00088F000020198B0008CF
:106FC000E08A0008F68A0008BC8A0008DE8A000809
:106FD00070B51C481B4D0078A5F1080510F01F0482
:106FE0000AD01848A5F11801174B4A780079012CEE
:106FF00006D0022C24D109E012481A3828601DE07E
:10700000F2B1897888421BD2002015E000F08F048D
:10701000200605D504F00F064FF48030B04001E0A3
:107020000120A0400AB922070AD18A68024207D08B
:10703000C9680142E8D0012018802B60012070BD92
:10704000002070BDAC000020F42C002070B5294A4F
:107050000146A2F12004107810F01F03104640886A
:1070600004D0012B28D0022B26D110E0012823D1F7
:1070700029B100F021FAE08840F0020005E000208C
:1070800000F01AFAE08820F00200E08030E0127987
:1070900002F08F06320605D506F00F024FF4803558
:1070A000954001E00125B54062782AB1320703D04E
:1070B000A2682A4200D008B1002070BD0D482038D7
:1070C000C06800EA050031B190B9304600F0CAF955
:1070D000E06828430BE058B12069284208D13046C7
:1070E000FFF7A6F93046FFF797FEE068A843E06097
:1070F000012070BDAC0000202DE9F84F5C4F00204E
:107100000090387810F01F0F6FD1B8784FF0000959
:107110004FF0010B4FF4803AA7F1200600287AD0F7
:10712000544801783046C07809B901285DD008B1CB
:10713000514C6BE0514C69E06078022804D004287F
:1071400044D0052860D144E06179B87881423BD1D0
:1071500070702079B0700020494A4A4903E000BFAE
:1071600002F80090401C0B889842F9D30125B046E4
:107170000BFA05F0D8F80810084202D02846FFF7AD
:10718000F0F9D8F808100AFA05F0084203D045F0E3
:107190008000FFF7E6F96D1C102DE9D34FF00110C8
:1071A000C8E902090120C8F81090FFF795F9E079C5
:1071B0004006B8F8060002D540F0010001E020F0DA
:1071C0000100A8F806001FE060881EE0E07800904B
:1071D0001AE00098C0B9A07800F08F05280605D500
:1071E00005F00F010AFA01F002E03CE00BFA05F0AD
:1071F000B16801432046B160FFF726F92846FFF742
:10720000B3F9284600F022F92078044420780028B9
:1072100092D124E0FFE7C84686F8019001245D463C
:107220004FEA0A09B16805FA04F0084202D0204684
:10723000FFF797F9B16809FA04F0084203D044F067
:107240008000FFF78EF9641C102CEBD34FF0011077
:10725000C6E902080020C6F81080FFF73DF9B878AB
:107260007178884202D00020BDE8F88F0120FBE74A
:10727000AC000020518A0008198B0008F68A00082B
:107280006C000020528A00082DE9FC5F444E002764
:107290003D463078BB4600F01F00B84601287DD13E
:1072A000A6F120014878002875D03E48BA460278F9
:1072B0000846C0780AB9012870D0894608B13A4C0E
:1072C00065E03A4C63E06078022804D0042809D0D5
:1072D00005285AD117E0617999F80100814254D00C
:1072E000608853E0A7783079E5784FF00008B8421D
:1072F0004BD1B078A84248D12D484FF0010A10F880
:1073000007B0C55541E03079B8423ED1A07800F0D1
:107310008F000190000605D5019800F00F014FF491
:10732000803001E00199012088400090B078A842A7
:1073300017D1D9F80810009A20461143C9F808104F
:10734000D9F80C109143C9F80C10FFF77DF801989B
:10735000FFF70AF9019800F079F8009948EA010866
:1073600013E05D4511D1009918EA010F0DD1D9F84C
:107370000810009A9143C9F80810D9F80C109143ED
:10738000C9F80C100198FFF7ECF820780444207835
:10739000002898D15046BDE8FC9FFFE70020FAE79F
:1073A000AC000020518A0008198B0008F68A0008FA
:1073B0006C0000201F49002008601F49096800294F
:1073C00005D000BF4FF400514FF4804201E04FF070
:1073D000000241EA020102D04FF4007201E04FF0D6
:1073E000000241EA020102D04FF4807201E04FF046
:1073F000000241EA0201114A41F41C411160114BA3
:107400000F494FF020021860486802604FF0600298
:1074100082604FF0A0020A8048F2FF71C1600A4901
:107420004FF448500860A3F104014FF08000086059
:1074300070470000445C0040B4000020405C004005
:1074400058000020505C0040005C0040FDF7B0B8E0
:10745000002903D1024940F0800008607047000015
:107460004C5C004041F21001FDF7B6B80149002024
:10747000FFF7AEBCAC00002000221146802000F0D7
:107480001DB8000001490020FFF7A2BCF42C002029
:107490000448016841F008010160016841F00401FD
:1074A00001607047405C00400248016821F008011B
:1074B00001607047405C004070470000F0B5154F18
:1074C000064600F00F037868144600EB0310124ADA
:1074D000006802EB40020020651C04E031F802CB9A
:1074E00042F804CB401CB0EB550FF7D378680B493A
:1074F00000EB0310446001EB8300D0F8000CC0F3F4
:107500000110012803D030213046FDF765F82046F0
:10751000F0BD000058000020006000400050004016
:107520002DE9F0473F4C26683F4D70050BD5FFF71E
:1075300041FF01F0B9F9296811B1042000F034FAD3
:107540006FF480602060300509D5FFF7A1FF29683E
:1075500011B1102000F028FA6FF400602060F004F0
:1075600009D5FFF7A1FF296811B1202000F01CFA0E
:107570006FF480502060B00507D5296811B1402014
:1075800000F012FA6FF400702060284F700409D5E3
:107590000220B860296811B1802000F005FA6FF46C
:1075A00080402060DFF88890DFF88880B00432D512
:1075B0000120B860296811B1802000F0F5F96FF45E
:1075C0000050206027E000BF6FF40041216000F010
:1075D0000F0609EB8607D7F8005C28040ED540F6A5
:1075E0008F702840C7F8000C58F8261031B12805D4
:1075F00001D5022000E0042000F0D6F928060AD5C3
:1076000048F60F700540C7F8005C58F8261011B115
:10761000082000F0C9F920680104D5D400202060BA
:10762000BDE8F087445C0040B40000205800002012
:1076300000500040B82D002010B540F6FF70FEF756
:10764000D3F81049C0F3C0224A7040F38022521C84
:107650008A70C20703D040F30022521C00E00222CD
:107660000A70C0F3C012CA70C0F380120A71C0F36E
:1076700040124A71C0F300128A71C0F3C000C87191
:1076800010BD0000040000202DE9F0410C46064624
:107690000D4F14E03F253F2C00DAE5B23D702A463D
:1076A0003146781CFCF73EFE40220749002001F0DD
:1076B00061F8641B2E440320DFF810C000DF002CAB
:1076C000E8DCBDE8F08100003C110020617B00088F
:1076D0002DE9F041DFF864C100DF594E594F5A4C93
:1076E0005A4D8646B6F80014B6F80204091A890500
:1076F0000ED053490246401CA1F802048A5C227055
:10770000C0F30900A1F80204072A15D12E601CE07D
:10771000B7F80014B7F80204091A89050CD04949D2
:107720000246401CA1F802048A5C2270C0F30900E2
:10773000A1F80204072A07D0DFF800C100DFA0EBA0
:107740000E003228CED974E02F60DFF8F0C000DFE1
:1077500006462968B1F80024B1F80204101AC0F3F3
:107760000900032817D3621C4FF0030C5FF00000E0
:10777000B1F802747B1CA1F80234CB5D1354B1F84C
:107780000234401CC3F30903A1F802346045EFDB67
:107790006078022806D0DFF8A4C000DF801B6428D0
:1077A000D7D946E0E178A0780C2202EB01214618F7
:1077B0006E60B6F5806F3CDADFF880C0361F00DF00
:1077C00007464FF4FA6E2868B0F80014B0F80204C7
:1077D000081AC0F30900B04225DB231D00212868E8
:1077E0000EE000BFB0F802747A1CA0F80224C25D5B
:1077F0005A54B0F80224491CC2F30902A0F802242A
:10780000B142EFDB6A6810490020921EFCF788FE47
:107810006968214411F8022D497802EB012189B2EF
:10782000884206D108E0DFF814C000DFC01B7045B5
:10783000C9D90020BDE8F0810120FBE739840008A8
:10784000380D0020340900201C01002050000020C9
:107850002DE9F047914688468246FDF72FF93520FD
:10786000FDF7D2F85046FDF7D5F8054604281AD1A1
:107870000AF1020404EB0907464608E036F8021B49
:107880002046FDF701F9054604280CD1A41CBC4292
:10789000F4D34A4641460020FCF742FE01465046DA
:1078A000FDF7F2F80546FDF7E7F8042D02D00020B9
:1078B000BDE8F0870120FBE74FF0E0214FF4801096
:1078C000C1F80001704710B5002A06DA22F0004224
:1078D000D21D22F00703102203E0D21C22F0030382
:1078E0000C2213B19C188C4201D9012010BD024416
:1078F00001448360C0E90021C91AD018884202D827
:1079000010600246F9E70020106010BD10B5044673
:1079100000F014FF002805D04FF6FF71DFF808C013
:10792000206800DF10BD0000217F000810B504466C
:1079300000F004FF002803D0DFF808C0206800DF53
:1079400010BD00003D7E000808480068C0010BD54E
:1079500007480068C00707D005488038006800283D
:1079600002DA04490120087070470000FCED00E0D5
:10797000800E00E0F40000204FF06042D36F002B37
:10798000FCD0436BD367D36F002BFCD0C07840EAA8
:107990000120A2F87C0070474FF06041CA6F002AB6
:1079A000FCD081F87C0070470A460146074810B5B4
:1079B00000EB820050F8040C002805D000F032FBE8
:1079C000BDE8104000F01EBB10BD0000CC2C002014
:1079D00010B54FF480414803FDF710FC00214FF42F
:1079E0001640FEF715FCFDF7DFFAFDF729FFFEF75D
:1079F00089F9FDF71BFE40F21A610620FDF7A0F998
:107A0000FDF764FAFCF7C6FB002211460248DFF8D6
:107A10000CC000DF002010BD6D4E0008A5820008DC
:107A2000FEE7FEE7074801684FF0E02041610021D2
:107A30008161072101610448016841F07F410160D3
:107A400040177047348A000820ED00E07047704707
:107A500050E8001F31B10B6840E80032002AF7D12E
:107A600008467047BFF32F8FFAE7000070B50D4648
:107A7000002812D04FF6FF71084C884204D22268C9
:107A80000146104600F0FCFA20684570044800F0FA
:107A9000F5F8BDE8704000F0F1BB70BDE8000020D3
:107AA000302E00207047000070B51A4DE86800289D
:107AB0002ED0A88A401EA882002623E0A06838B1F4
:107AC00061684160606810B1A16881606660A6600D
:107AD00010482146183800F0F7FAA08AA88260788A
:107AE000042804D10C49E08A09880844A0820120B6
:107AF000607084F82500E068E860E06808B105611E
:107B0000E6602661A88A002802D1EC68002CD5D155
:107B100070BD0000482E0020F000002070B5040069
:107B20000FD00D4DA17801262868827891420CD99A
:107B300000F0E6FA286846702046BDE8704000F084
:107B40009DBB064800F09AF8F7E766702146BDE84D
:107B50007040024800F0B8BAE8000020302E002043
:107B60000321FFF783BF000001480068408B704786
:107B7000E800002010B50446008B0843208362789B
:107B8000618B062A16D0052A17D1084215D001EAC2
:107B90000002628388432083204600F0D5FA01204A
:107BA0006070022084F825002146BDE8104003489B
:107BB00000F08ABA31EA0002ECD010BD302E00206D
:107BC000024670B5154800EB810050F8044C002CBB
:107BD00022D0208B104320836178658B062918D032
:107BE000052919D1284217D005EA00016183A8436D
:107BF0002083204600F0A8FA208BA8432083012090
:107C00006070022084F825002046BDE87040FFF730
:107C100085BF35EA0001EAD070BD0000CC2C002001
:107C200070B503460C480D460468208B42B133EA18
:107C3000000101D0062109E098432083022070BD95
:107C400010EA030101D06183F6E70521638328462A
:107C5000FFF70CFF012070BDE8000020814202D335
:107C600042688A4201D80120704750E8002F0A601C
:107C700040E80012002AF8D1002070470146406811
:107C800042684A600B780022022B05D0012B03D0FA
:107C9000032B01D04260704743680BB1996042608A
:107CA000826070470649074B48681B6882789B785A
:107CB0009A4202D142684A60704700207047000033
:107CC000302E0020E800002070B504460020154644
:107CD000207001226270A17084F824106060A0609E
:107CE000E06020612062A082E0822083608384F8CB
:107CF000250084F82600208D18B90548FFF7A8FE56
:107D0000206329462046BDE8704000F005B8000019
:107D1000B81300207047000010B5028D920803D1FF
:107D20000F4A1288C2F38D02036B03EB82025307E2
:107D300000D5121F4FF0807342E9021300231C4646
:107D4000B2F1400242F823405B1C0E2BFAD3C36908
:107D50001362C2624163006B0249016010BD000002
:107D6000308A0008A52E5AE22DE9F0410446406809
:107D70000F464FF0000804F10C0620B1617802298B
:107D80001DD0A089E8B3A089E18988424ED220891C
:107D900004EB8000C0F81070D6E85F0F401C81B281
:107DA000C6E8501F0028F7D12089401C80B22081EE
:107DB000E189884201D1A4F80880BDE8F0814068DB
:107DC00000B1012060702046FFF758FF80F8258041
:107DD0002289054604EB8202C0694146C2F81000C0
:107DE000D6E85F0F401C82B2C6E8502F0028F7D1BA
:107DF0002089401C80B22081E28990420BD12181F0
:107E000009E0FFE72046FFF739FF0546C069042176
:107E1000076085F8251001206870284600F094F965
:107E20002946BDE8F041044800F04EB9BDE8F041F4
:107E30000320FFF7F5BD0000302E00202DE9F047AC
:107E40000446408820B1344DA1682A68914202D08E
:107E5000FF20BDE8F087401E0004000C608059D16F
:107E60002968086AA04209D1E068086208E0C2688F
:107E7000A24202D1E268C26002E010460028F6D1B8
:107E800091F824000A6A06E053681BB19B7883428C
:107E900000D91846D268002AF6D18870DFF87C80B5
:107EA00061689146012741B32046FFF7E7FE064689
:107EB000052086F82500304600F046F96780A66068
:107EC000306AE06034622968D8F804008A788078E3
:107ED000824201D330460AE0104800F0F5F83146FE
:107EE0000E4800F0F1F828684770777010E0FFF74F
:107EF00015FE296881F825900CE0D8F804108A78DE
:107F00002968824206D9054800F0DEF828684770E3
:107F10000020ECE700209CE7E8000020302E002045
:107F200070B5184D0E4604464188286839B1A168DD
:107F3000814209D16088401C6080002070BDA06033
:107F4000016AE1600462F5E776B18A78807882425E
:107F500003D28870A06800F0DDF8606830B1204678
:107F6000296800F0B1F808E0012070BD2868606061
:107F70002968002048602868846009213046FFF79E
:107F800075FDF1E7E800002070B51B48012102688B
:107F90005170006800F0B4F8184D6C7818E000BF1C
:107FA00005EBC40148680278EAB1012A20D000F04C
:107FB000FDF8E878641C844200D100240F48801C3E
:107FC000D0E84F1F491EC9B2C0E8421F002AF7D1AE
:107FD000A8780028E4D16C700948FFF74FFEBDE88F
:107FE000704000F04BB9098989B2FFF7C3FDE0E7A3
:107FF0008968FFF7B9FEDCE7E8000020C829002007
:10800000302E00200548017811B1012141707047E0
:1080100003494FF08050086070470000F8000020CE
:1080200004ED00E0F0B4154DAB1CEE784FEA050707
:10803000D3E84F2FB24202D1BFF32F8F11E0521C71
:10804000D4B2C3E8424F002AF2D100BFD7E84F2F85
:10805000541CB44200D10024E4B2C7E8434F002BC3
:10806000F4D1EB78934205D905EBC202C2E90101D4
:10807000F0BC7047F0BC0220FFF7D2BCC82900203A
:10808000104A10B5D368ABB113469B8A03E08CB19C
:108090002246A48A2344D4688B42F8D3C460D060BB
:1080A0000261C46804B12061591A8182908A401A21
:1080B000908210BD0024C460D060C91A0261918210
:1080C000848210BD482E002030B502780023022A99
:1080D00003D0012A01D0032A00D101238C7800E0CB
:1080E0001046426812B19578A542F9D24A604160C3
:1080F0001BB102B19160886030BD0020FBE7000039
:1081000003494A684260002282604860704700006C
:10811000302E002010B5836804462BB96078012802
:108120000ED1084B03E09B6818780028FBD020464E
:1081300000F01EF82146BDE810401846FFF7C4BF06
:1081400010BD0000302E002010B5016900290ED0AE
:10815000C268CA60C36800223BB18B8A848A234408
:108160008B82C3681961C26000E08A82026110BD1F
:10817000816839B142684A604168002901D080684D
:1081800088607047054906E04A68824202D140682B
:108190004860704711460029F6D17047302E002004
:1081A00002220270002242604180704710B541688F
:1081B00079B1FFF763FD0446FFF7C6FF0120607049
:1081C000032084F825002146BDE810400348FFF74E
:1081D0007BBF4188491C418010BD0000302E00202B
:1081E00010B5416889B1FFF749FD0446032084F8C2
:1081F00025002046FFF7A8FF2046FFF78FFC054922
:108200000020096881F8250002E04188491C41806E
:10821000002010BDE800002010B50C46418819B1BF
:10822000491E4180002010BD34B10A4A43681168DC
:1082300023B1FFF749FF07E0012010BD416013683B
:10824000002159601168886007212046FFF70EFC65
:10825000F2E70000E800002006480068D0E90B10B3
:10826000814203D300680449884202D00120FFF70D
:10827000D7BB7047E8000020A52E5AE2074902222A
:1082800048604270064A1278002A05D006C98A4220
:1082900002D0C078FFF780BB70470000E8000020E4
:1082A000F40000202DE9F047164688468146FFF786
:1082B0004BFB002004463E4A3E4902E042F8204083
:1082C000401C0B889842F9D33B48382201883B4830
:1082D000FFF7F9FA3A48008880B240F00042394886
:1082E00001683948FFF7EFFA384808220188384812
:1082F0000068FFF7E8FA374FFF25374AFD703C85E5
:1083000000213846FFF7E0FC344804210170446046
:1083100033480170C46004618482F86A2030FBF73E
:1083200033FF304831490760022078702E480470CE
:1083300044700978C170FFF7EDFC2D48016841F4E5
:108340007F0101600068290601EA00202849C04336
:108350001439B0FA80F00968C0F10800C1F30221B5
:10836000814200DB481C2249091F0B686FF08072B4
:10837000824063F317020A60FFF754FB1D4900288F
:1083800008600DDB00F1E02181F8005400F01F02CD
:10839000012191404011800000F1E020C0F800115F
:1083A000324641464846BDE8F047002300F06AB82F
:1083B000CC2C00202E8A0008448A00087C11002062
:1083C000308A0008488A0008B81300204E8A000846
:1083D00068000020F82D0020237A0008302E0020AD
:1083E000482E0020E8000020C82900204C8A000800
:1083F00020ED00E0FC0000200C4810B502680121CF
:1084000051700068FFF77CFEFFF74CFB08480168DD
:10841000491C0160FFF748FB00F014F80548FFF71E
:108420002DFCBDE81040FFF729BF0000E800002048
:10843000F0000020302E0020014800687047000046
:10844000F000002070B50D4C2068002815D0A088E1
:108450000B4E401EA0800AE0E888FFF7F8FAA888D3
:10846000A0802868206029463068FFF7F7FBA088C5
:10847000002802D12568002DEED170BD000100203A
:10848000680000202DE9F0411E46174680460C4644
:1084900011F0FF0F00D14C1C1948FFF7D9FA050065
:1084A0002BD0200A2F632885E1B242462846EE6190
:1084B000FFF70AFC01241348134905E000EB84028E
:1084C00052F8042C22B1641C0A889442F6D9002484
:1084D00000EB8400E6B240F8045C0C48EE700078D3
:1084E00018B101212846FFF747FA2846FFF716FB87
:1084F0000748006880F825602046BDE8F08100004C
:108500007C110020CC2C00202E8A0008F4000020D2
:10851000E80000202DE9F05F544DDFF848B1DFF8A6
:1085200048A129684FF000084FF00509012610B155
:10853000CA7882423FD1474681F80180FBF727FE87
:108540002968C862FFF788FE2868B046046A18E008
:108550006068A8B12046FFF791FB064680F8259099
:10856000FFF7F2FD86F8018031464148FFF7ACFD88
:10857000A4F80280A660316AE1603462E46800E039
:10858000E468002CE4D12868C2780AEB820141F843
:10859000047C016B3748FFF761FB286807639BF891
:1085A000001011B10021FFF7E7F933482968FFF700
:1085B00055FB2F6051E03149098888420ED80AEBFB
:1085C000800757F8045C4DB12846FFF7D1FD2846D7
:1085D000FFF7BAFDCA46B1462C6A1BE0FF20BDE892
:1085E000F09F6068A8B12046FFF748FB064680F878
:1085F00025A0FFF7A9FD86F8019031461C48FFF73A
:1086000063FDA4F80290A660316AE1603462E46818
:1086100000E0E468002CE4D147F8048C4446154897
:10862000296BFFF71BFB2C639BF8000018B100219E
:108630002846FFF7A1F929460F48FFF70FFB0C4822
:1086400040688278094801688B789A4208D981F895
:10865000019001680648FFF737FD0020FFF75EFA3A
:108660000020BCE7F4000020CC2C0020E800002013
:10867000302E0020B81300207C1100202E8A000824
:1086800070B5FFF70FFB04000CD0074D07482968B1
:10869000FFF71AFD2968012048702046BDE87040A8
:1086A000FFF7ECBD70BD0000E8000020302E002078
:1086B00070B51E4C002680B11D4A1288904222D807
:1086C0001C4A02EB800050F8045CE5B1A97085F803
:1086D00024102068A84205D017E020688170206827
:1086E00080F8241014484068807888421BD91248CA
:1086F0002168FFF7E9FC216801204870206880F8B4
:10870000256000200DE0FF2070BD2846FFF702FD28
:108710006878012807D10848FFF7B0FA216881F886
:108720002560FFF7FBF9002070BD0000E800002085
:108730002E8A0008CC2C0020302E00200248006831
:10874000002800D0C0787047E800002000F060B832
:10875000FDF7CABE00207047012801D0032801D0D0
:108760000020704702480078107001207047000018
:10877000640000202DE9F04107461F481646008896
:10878000824202DD0020BDE8F0811C48007800280C
:10879000F9D01B4C01224FF00008E26000E0B0B1BC
:1087A000626A12B1A269002AF9D1164D3246681CDC
:1087B0002F70FBF7B7FDE5611349A4F80480B0B250
:1087C0006080097801290BD86D1CE5610AE0C4F8C6
:1087D0000C80C4F81C80A4F80480A4F80280D1E7BF
:1087E000401C60800020FEF791F8084800F80780E0
:1087F0000120C4F80C80C6E7628A00088D000020C2
:10880000B8000020342D0020608A0008700000208D
:108810007047704770B5022805D0032802D10E4971
:108820001078087070BD14785B1E9C42FADC002141
:108830000A48521C0DE0B0F80034565C5D1CA0F8EC
:108840000054C654B0F80034491CC3F30903A0F81F
:108850000034A142EFDB70BD64000020380D002021
:10886000054910B50020C870FFF770FFFEF76CFADD
:10887000BDE81040FEF71EBA8C000020DFF804C0EF
:1088800000DF7047697B0008002902D0DFF804C0D0
:1088900000DF7047C17B00080022DFF808C000DF5E
:1088A00070470000217C000806484FF00112017853
:1088B0000548C180002101704170C0E902210161B9
:1088C00070470000508A00088C0000203C00002007
:1088D0000400002076463230303631332E310076B7
:1088E000463230303631332E310076463230303633
:1088F00031332E31000080004000200010000800BD
:10890000000C014080000000000C0140400000000D
:10891000000C014020000000000C0140100000008D
:10892000000C014008000000001401400400000099
:10893000001001400010000000100140000800007D
:108940000010014001000000001001400200000082
:108950000008014010000000000801402000000055
:10896000000801404000020000100140100000001B
:1089700000100140200000000008014080000400B9
:108980000A140A1403052828000000002828010101
:1089900000000000000000000000000000000000D7
:1089A00000000000000000000000000000000000C7
:1089B00000000000000000000000000000000000B7
:1089C000000000000000000000AABBCC0000000076
:1089D0000000000000000000000000000000000097
:1089E0000000000000000000000000000000000087
:1089F0000000000000000000000000000000000077
:108A00000100010001000100010000000000000061
:108A10002000000000000000000000000000000036
:108A200000000000000000000000000000000A003C
:108A3000000200013F19010000000000E8030000EF
:108A4000000000003C020000101600006000000062
:108A50000000010040000100010040004000400013
:108A600001004000000000000000000000000000C5
:108A700001000000ED6C0008C56C0008156D0008D1
:108A80002B6D000800000000000000000000000046
:108A900000000000000000000000000000000000D6
:108AA00000000000000000000000000000000000C6
:108AB0000000000000000000000000000600FF09A8
:108AC00001A101150026FF007508954009018102EA
:108AD00095400901910295010901B102C0002100F0
:108AE00012001201100100000040830457570001DA
:108AF0000102030100000902220001010080320985
:108B000004000001030000040921000100012221EA
:108B10000007058103400001000000000403090470
:108B20001A03410043005400200053006F00660008
:108B300074007700610072006500180346004E0063
:108B40002D00310030003000320020005200430080
:108B50004D001A0330003000300031004100300079
:108B6000300030003000300030003000100355007D
:108B7000530042005F004800490044004B000400DD
:108B8000A08B000800000020080100002841000818
:108B9000A88C000808010020B835000044410008F6
:108BA00000000000000000000000000000000000C5
:108BB00000000000000000000000000000000000B5
:108BC00000000000000000000000000000000000A5
:108BD000000000000000000000000000080F00007E
:108BE0000000000000000000000000000000000085
:108BF000380D002000000000000000000060004070
:108C00000000000000000000000000000000000064
:108C1000000000000002040608000000000102033A
:108C20000401020304060708090000000000000018
:108C30000000000000000000000000000000000034
:108C40000000000000000000000000000000000024
:108C50000000000000000000000000000000000014
:108C60000000000000000000000000000000000004
:108C700000000000000000000000000000000000F4
:108C800000000000000000000000000000000000E4
:108C900000000000000000000000000000000000D4
:088CA0000000000000000000CC
:04000005080040EDC2
:00000001FF
